{
  "contractName": "Pokemon",
  "abi": [
    {
      "inputs": [],
      "stateMutability": "nonpayable",
      "type": "constructor"
    },
    {
      "anonymous": false,
      "inputs": [
        {
          "indexed": true,
          "internalType": "address",
          "name": "owner",
          "type": "address"
        },
        {
          "indexed": true,
          "internalType": "address",
          "name": "approved",
          "type": "address"
        },
        {
          "indexed": true,
          "internalType": "uint256",
          "name": "tokenId",
          "type": "uint256"
        }
      ],
      "name": "Approval",
      "type": "event"
    },
    {
      "anonymous": false,
      "inputs": [
        {
          "indexed": true,
          "internalType": "address",
          "name": "owner",
          "type": "address"
        },
        {
          "indexed": true,
          "internalType": "address",
          "name": "operator",
          "type": "address"
        },
        {
          "indexed": false,
          "internalType": "bool",
          "name": "approved",
          "type": "bool"
        }
      ],
      "name": "ApprovalForAll",
      "type": "event"
    },
    {
      "anonymous": false,
      "inputs": [
        {
          "indexed": true,
          "internalType": "address",
          "name": "from",
          "type": "address"
        },
        {
          "indexed": true,
          "internalType": "address",
          "name": "to",
          "type": "address"
        },
        {
          "indexed": true,
          "internalType": "uint256",
          "name": "tokenId",
          "type": "uint256"
        }
      ],
      "name": "Transfer",
      "type": "event"
    },
    {
      "inputs": [
        {
          "internalType": "address",
          "name": "to",
          "type": "address"
        },
        {
          "internalType": "uint256",
          "name": "tokenId",
          "type": "uint256"
        }
      ],
      "name": "approve",
      "outputs": [],
      "stateMutability": "nonpayable",
      "type": "function"
    },
    {
      "inputs": [
        {
          "internalType": "address",
          "name": "owner",
          "type": "address"
        }
      ],
      "name": "balanceOf",
      "outputs": [
        {
          "internalType": "uint256",
          "name": "",
          "type": "uint256"
        }
      ],
      "stateMutability": "view",
      "type": "function",
      "constant": true
    },
    {
      "inputs": [
        {
          "internalType": "uint256",
          "name": "tokenId",
          "type": "uint256"
        }
      ],
      "name": "getApproved",
      "outputs": [
        {
          "internalType": "address",
          "name": "",
          "type": "address"
        }
      ],
      "stateMutability": "view",
      "type": "function",
      "constant": true
    },
    {
      "inputs": [
        {
          "internalType": "address",
          "name": "owner",
          "type": "address"
        },
        {
          "internalType": "address",
          "name": "operator",
          "type": "address"
        }
      ],
      "name": "isApprovedForAll",
      "outputs": [
        {
          "internalType": "bool",
          "name": "",
          "type": "bool"
        }
      ],
      "stateMutability": "view",
      "type": "function",
      "constant": true
    },
    {
      "inputs": [],
      "name": "name",
      "outputs": [
        {
          "internalType": "string",
          "name": "",
          "type": "string"
        }
      ],
      "stateMutability": "view",
      "type": "function",
      "constant": true
    },
    {
      "inputs": [
        {
          "internalType": "uint256",
          "name": "tokenId",
          "type": "uint256"
        }
      ],
      "name": "ownerOf",
      "outputs": [
        {
          "internalType": "address",
          "name": "",
          "type": "address"
        }
      ],
      "stateMutability": "view",
      "type": "function",
      "constant": true
    },
    {
      "inputs": [
        {
          "internalType": "address",
          "name": "from",
          "type": "address"
        },
        {
          "internalType": "address",
          "name": "to",
          "type": "address"
        },
        {
          "internalType": "uint256",
          "name": "tokenId",
          "type": "uint256"
        }
      ],
      "name": "safeTransferFrom",
      "outputs": [],
      "stateMutability": "nonpayable",
      "type": "function"
    },
    {
      "inputs": [
        {
          "internalType": "address",
          "name": "from",
          "type": "address"
        },
        {
          "internalType": "address",
          "name": "to",
          "type": "address"
        },
        {
          "internalType": "uint256",
          "name": "tokenId",
          "type": "uint256"
        },
        {
          "internalType": "bytes",
          "name": "_data",
          "type": "bytes"
        }
      ],
      "name": "safeTransferFrom",
      "outputs": [],
      "stateMutability": "nonpayable",
      "type": "function"
    },
    {
      "inputs": [
        {
          "internalType": "address",
          "name": "operator",
          "type": "address"
        },
        {
          "internalType": "bool",
          "name": "approved",
          "type": "bool"
        }
      ],
      "name": "setApprovalForAll",
      "outputs": [],
      "stateMutability": "nonpayable",
      "type": "function"
    },
    {
      "inputs": [
        {
          "internalType": "bytes4",
          "name": "interfaceId",
          "type": "bytes4"
        }
      ],
      "name": "supportsInterface",
      "outputs": [
        {
          "internalType": "bool",
          "name": "",
          "type": "bool"
        }
      ],
      "stateMutability": "view",
      "type": "function",
      "constant": true
    },
    {
      "inputs": [],
      "name": "symbol",
      "outputs": [
        {
          "internalType": "string",
          "name": "",
          "type": "string"
        }
      ],
      "stateMutability": "view",
      "type": "function",
      "constant": true
    },
    {
      "inputs": [],
      "name": "tokenCounter",
      "outputs": [
        {
          "internalType": "uint256",
          "name": "",
          "type": "uint256"
        }
      ],
      "stateMutability": "view",
      "type": "function",
      "constant": true
    },
    {
      "inputs": [
        {
          "internalType": "uint256",
          "name": "tokenId",
          "type": "uint256"
        }
      ],
      "name": "tokenURI",
      "outputs": [
        {
          "internalType": "string",
          "name": "",
          "type": "string"
        }
      ],
      "stateMutability": "view",
      "type": "function",
      "constant": true
    },
    {
      "inputs": [
        {
          "internalType": "address",
          "name": "from",
          "type": "address"
        },
        {
          "internalType": "address",
          "name": "to",
          "type": "address"
        },
        {
          "internalType": "uint256",
          "name": "tokenId",
          "type": "uint256"
        }
      ],
      "name": "transferFrom",
      "outputs": [],
      "stateMutability": "nonpayable",
      "type": "function"
    },
    {
      "inputs": [
        {
          "internalType": "string",
          "name": "tokenURI",
          "type": "string"
        }
      ],
      "name": "mint",
      "outputs": [
        {
          "internalType": "uint256",
          "name": "",
          "type": "uint256"
        }
      ],
      "stateMutability": "nonpayable",
      "type": "function"
    }
  ],
  "bytecode": "0x60806040523480156200001157600080fd5b506040518060400160405280600981526020017f43686172697a61726400000000000000000000000000000000000000000000008152506040518060400160405280600381526020017f43485a0000000000000000000000000000000000000000000000000000000000815250816000908051906020019062000096929190620000c0565b508060019080519060200190620000af929190620000c0565b5050506000600681905550620001d5565b828054620000ce9062000170565b90600052602060002090601f016020900481019282620000f257600085556200013e565b82601f106200010d57805160ff19168380011785556200013e565b828001600101855582156200013e579182015b828111156200013d57825182559160200191906001019062000120565b5b5090506200014d919062000151565b5090565b5b808211156200016c57600081600090555060010162000152565b5090565b600060028204905060018216806200018957607f821691505b60208210811415620001a0576200019f620001a6565b5b50919050565b7f4e487b7100000000000000000000000000000000000000000000000000000000600052602260045260246000fd5b61277c80620001e56000396000f3fe608060405234801561001057600080fd5b50600436106100f55760003560e01c806370a0823111610097578063c87b56dd11610066578063c87b56dd14610282578063d082e381146102b2578063d85d3d27146102d0578063e985e9c514610300576100f5565b806370a08231146101fc57806395d89b411461022c578063a22cb4651461024a578063b88d4fde14610266576100f5565b8063095ea7b3116100d3578063095ea7b31461017857806323b872dd1461019457806342842e0e146101b05780636352211e146101cc576100f5565b806301ffc9a7146100fa57806306fdde031461012a578063081812fc14610148575b600080fd5b610114600480360381019061010f91906119db565b610330565b6040516101219190612114565b60405180910390f35b610132610412565b60405161013f919061212f565b60405180910390f35b610162600480360381019061015d9190611a6e565b6104a4565b60405161016f91906120ad565b60405180910390f35b610192600480360381019061018d919061199f565b610529565b005b6101ae60048036038101906101a99190611899565b610641565b005b6101ca60048036038101906101c59190611899565b6106a1565b005b6101e660048036038101906101e19190611a6e565b6106c1565b6040516101f391906120ad565b60405180910390f35b61021660048036038101906102119190611834565b610773565b6040516102239190612311565b60405180910390f35b61023461082b565b604051610241919061212f565b60405180910390f35b610264600480360381019061025f9190611963565b6108bd565b005b610280600480360381019061027b91906118e8565b610a3e565b005b61029c60048036038101906102979190611a6e565b610aa0565b6040516102a9919061212f565b60405180910390f35b6102ba610b47565b6040516102c79190612311565b60405180910390f35b6102ea60048036038101906102e59190611a2d565b610b4d565b6040516102f79190612311565b60405180910390f35b61031a6004803603810190610315919061185d565b610b80565b6040516103279190612114565b60405180910390f35b60007f80ac58cd000000000000000000000000000000000000000000000000000000007bffffffffffffffffffffffffffffffffffffffffffffffffffffffff1916827bffffffffffffffffffffffffffffffffffffffffffffffffffffffff191614806103fb57507f5b5e139f000000000000000000000000000000000000000000000000000000007bffffffffffffffffffffffffffffffffffffffffffffffffffffffff1916827bffffffffffffffffffffffffffffffffffffffffffffffffffffffff1916145b8061040b575061040a82610c14565b5b9050919050565b60606000805461042190612571565b80601f016020809104026020016040519081016040528092919081815260200182805461044d90612571565b801561049a5780601f1061046f5761010080835404028352916020019161049a565b820191906000526020600020905b81548152906001019060200180831161047d57829003601f168201915b5050505050905090565b60006104af82610c7e565b6104ee576040517f08c379a00000000000000000000000000000000000000000000000000000000081526004016104e590612271565b60405180910390fd5b6004600083815260200190815260200160002060009054906101000a900473ffffffffffffffffffffffffffffffffffffffff169050919050565b6000610534826106c1565b90508073ffffffffffffffffffffffffffffffffffffffff168373ffffffffffffffffffffffffffffffffffffffff1614156105a5576040517f08c379a000000000000000000000000000000000000000000000000000000000815260040161059c906122d1565b60405180910390fd5b8073ffffffffffffffffffffffffffffffffffffffff166105c4610cea565b73ffffffffffffffffffffffffffffffffffffffff1614806105f357506105f2816105ed610cea565b610b80565b5b610632576040517f08c379a0000000000000000000000000000000000000000000000000000000008152600401610629906121f1565b60405180910390fd5b61063c8383610cf2565b505050565b61065261064c610cea565b82610dab565b610691576040517f08c379a0000000000000000000000000000000000000000000000000000000008152600401610688906122f1565b60405180910390fd5b61069c838383610e89565b505050565b6106bc83838360405180602001604052806000815250610a3e565b505050565b6000806002600084815260200190815260200160002060009054906101000a900473ffffffffffffffffffffffffffffffffffffffff169050600073ffffffffffffffffffffffffffffffffffffffff168173ffffffffffffffffffffffffffffffffffffffff16141561076a576040517f08c379a000000000000000000000000000000000000000000000000000000000815260040161076190612231565b60405180910390fd5b80915050919050565b60008073ffffffffffffffffffffffffffffffffffffffff168273ffffffffffffffffffffffffffffffffffffffff1614156107e4576040517f08c379a00000000000000000000000000000000000000000000000000000000081526004016107db90612211565b60405180910390fd5b600360008373ffffffffffffffffffffffffffffffffffffffff1673ffffffffffffffffffffffffffffffffffffffff168152602001908152602001600020549050919050565b60606001805461083a90612571565b80601f016020809104026020016040519081016040528092919081815260200182805461086690612571565b80156108b35780601f10610888576101008083540402835291602001916108b3565b820191906000526020600020905b81548152906001019060200180831161089657829003601f168201915b5050505050905090565b6108c5610cea565b73ffffffffffffffffffffffffffffffffffffffff168273ffffffffffffffffffffffffffffffffffffffff161415610933576040517f08c379a000000000000000000000000000000000000000000000000000000000815260040161092a906121b1565b60405180910390fd5b8060056000610940610cea565b73ffffffffffffffffffffffffffffffffffffffff1673ffffffffffffffffffffffffffffffffffffffff16815260200190815260200160002060008473ffffffffffffffffffffffffffffffffffffffff1673ffffffffffffffffffffffffffffffffffffffff16815260200190815260200160002060006101000a81548160ff0219169083151502179055508173ffffffffffffffffffffffffffffffffffffffff166109ed610cea565b73ffffffffffffffffffffffffffffffffffffffff167f17307eab39ab6107e8899845ad3d59bd9653f200f220920489ca2b5937696c3183604051610a329190612114565b60405180910390a35050565b610a4f610a49610cea565b83610dab565b610a8e576040517f08c379a0000000000000000000000000000000000000000000000000000000008152600401610a85906122f1565b60405180910390fd5b610a9a848484846110e5565b50505050565b6060610aab82610c7e565b610aea576040517f08c379a0000000000000000000000000000000000000000000000000000000008152600401610ae1906122b1565b60405180910390fd5b6000610af4611141565b90506000815111610b145760405180602001604052806000815250610b3f565b80610b1e84611158565b604051602001610b2f929190612089565b6040516020818303038152906040525b915050919050565b60065481565b6000806006549050610b5f3382611305565b60066000815480929190610b72906125a3565b919050555080915050919050565b6000600560008473ffffffffffffffffffffffffffffffffffffffff1673ffffffffffffffffffffffffffffffffffffffff16815260200190815260200160002060008373ffffffffffffffffffffffffffffffffffffffff1673ffffffffffffffffffffffffffffffffffffffff16815260200190815260200160002060009054906101000a900460ff16905092915050565b60007f01ffc9a7000000000000000000000000000000000000000000000000000000007bffffffffffffffffffffffffffffffffffffffffffffffffffffffff1916827bffffffffffffffffffffffffffffffffffffffffffffffffffffffff1916149050919050565b60008073ffffffffffffffffffffffffffffffffffffffff166002600084815260200190815260200160002060009054906101000a900473ffffffffffffffffffffffffffffffffffffffff1673ffffffffffffffffffffffffffffffffffffffff1614159050919050565b600033905090565b816004600083815260200190815260200160002060006101000a81548173ffffffffffffffffffffffffffffffffffffffff021916908373ffffffffffffffffffffffffffffffffffffffff160217905550808273ffffffffffffffffffffffffffffffffffffffff16610d65836106c1565b73ffffffffffffffffffffffffffffffffffffffff167f8c5be1e5ebec7d5bd14f71427d1e84f3dd0314c0f7b2291e5b200ac8c7c3b92560405160405180910390a45050565b6000610db682610c7e565b610df5576040517f08c379a0000000000000000000000000000000000000000000000000000000008152600401610dec906121d1565b60405180910390fd5b6000610e00836106c1565b90508073ffffffffffffffffffffffffffffffffffffffff168473ffffffffffffffffffffffffffffffffffffffff161480610e6f57508373ffffffffffffffffffffffffffffffffffffffff16610e57846104a4565b73ffffffffffffffffffffffffffffffffffffffff16145b80610e805750610e7f8185610b80565b5b91505092915050565b8273ffffffffffffffffffffffffffffffffffffffff16610ea9826106c1565b73ffffffffffffffffffffffffffffffffffffffff1614610eff576040517f08c379a0000000000000000000000000000000000000000000000000000000008152600401610ef690612291565b60405180910390fd5b600073ffffffffffffffffffffffffffffffffffffffff168273ffffffffffffffffffffffffffffffffffffffff161415610f6f576040517f08c379a0000000000000000000000000000000000000000000000000000000008152600401610f6690612191565b60405180910390fd5b610f7a838383611323565b610f85600082610cf2565b6001600360008573ffffffffffffffffffffffffffffffffffffffff1673ffffffffffffffffffffffffffffffffffffffff1681526020019081526020016000206000828254610fd59190612487565b925050819055506001600360008473ffffffffffffffffffffffffffffffffffffffff1673ffffffffffffffffffffffffffffffffffffffff168152602001908152602001600020600082825461102c9190612400565b92505081905550816002600083815260200190815260200160002060006101000a81548173ffffffffffffffffffffffffffffffffffffffff021916908373ffffffffffffffffffffffffffffffffffffffff160217905550808273ffffffffffffffffffffffffffffffffffffffff168473ffffffffffffffffffffffffffffffffffffffff167fddf252ad1be2c89b69c2b068fc378daa952ba7f163c4a11628f55a4df523b3ef60405160405180910390a4505050565b6110f0848484610e89565b6110fc84848484611328565b61113b576040517f08c379a000000000000000000000000000000000000000000000000000000000815260040161113290612151565b60405180910390fd5b50505050565b606060405180602001604052806000815250905090565b606060008214156111a0576040518060400160405280600181526020017f30000000000000000000000000000000000000000000000000000000000000008152509050611300565b600082905060005b600082146111d25780806111bb906125a3565b915050600a826111cb9190612456565b91506111a8565b60008167ffffffffffffffff811115611214577f4e487b7100000000000000000000000000000000000000000000000000000000600052604160045260246000fd5b6040519080825280601f01601f1916602001820160405280156112465781602001600182028036833780820191505090505b5090505b600085146112f95760018261125f9190612487565b9150600a8561126e91906125ec565b603061127a9190612400565b60f81b8183815181106112b6577f4e487b7100000000000000000000000000000000000000000000000000000000600052603260045260246000fd5b60200101907effffffffffffffffffffffffffffffffffffffffffffffffffffffffffffff1916908160001a905350600a856112f29190612456565b945061124a565b8093505050505b919050565b61131f8282604051806020016040528060008152506114bf565b5050565b505050565b60006113498473ffffffffffffffffffffffffffffffffffffffff1661151a565b156114b2578373ffffffffffffffffffffffffffffffffffffffff1663150b7a02611372610cea565b8786866040518563ffffffff1660e01b815260040161139494939291906120c8565b602060405180830381600087803b1580156113ae57600080fd5b505af19250505080156113df57506040513d601f19601f820116820180604052508101906113dc9190611a04565b60015b611462573d806000811461140f576040519150601f19603f3d011682016040523d82523d6000602084013e611414565b606091505b5060008151141561145a576040517f08c379a000000000000000000000000000000000000000000000000000000000815260040161145190612151565b60405180910390fd5b805181602001fd5b63150b7a0260e01b7bffffffffffffffffffffffffffffffffffffffffffffffffffffffff1916817bffffffffffffffffffffffffffffffffffffffffffffffffffffffff1916149150506114b7565b600190505b949350505050565b6114c9838361152d565b6114d66000848484611328565b611515576040517f08c379a000000000000000000000000000000000000000000000000000000000815260040161150c90612151565b60405180910390fd5b505050565b600080823b905060008111915050919050565b600073ffffffffffffffffffffffffffffffffffffffff168273ffffffffffffffffffffffffffffffffffffffff16141561159d576040517f08c379a000000000000000000000000000000000000000000000000000000000815260040161159490612251565b60405180910390fd5b6115a681610c7e565b156115e6576040517f08c379a00000000000000000000000000000000000000000000000000000000081526004016115dd90612171565b60405180910390fd5b6115f260008383611323565b6001600360008473ffffffffffffffffffffffffffffffffffffffff1673ffffffffffffffffffffffffffffffffffffffff16815260200190815260200160002060008282546116429190612400565b92505081905550816002600083815260200190815260200160002060006101000a81548173ffffffffffffffffffffffffffffffffffffffff021916908373ffffffffffffffffffffffffffffffffffffffff160217905550808273ffffffffffffffffffffffffffffffffffffffff16600073ffffffffffffffffffffffffffffffffffffffff167fddf252ad1be2c89b69c2b068fc378daa952ba7f163c4a11628f55a4df523b3ef60405160405180910390a45050565b600061170e6117098461235d565b61232c565b90508281526020810184848401111561172657600080fd5b61173184828561252f565b509392505050565b600061174c6117478461238d565b61232c565b90508281526020810184848401111561176457600080fd5b61176f84828561252f565b509392505050565b600081359050611786816126ea565b92915050565b60008135905061179b81612701565b92915050565b6000813590506117b081612718565b92915050565b6000815190506117c581612718565b92915050565b600082601f8301126117dc57600080fd5b81356117ec8482602086016116fb565b91505092915050565b600082601f83011261180657600080fd5b8135611816848260208601611739565b91505092915050565b60008135905061182e8161272f565b92915050565b60006020828403121561184657600080fd5b600061185484828501611777565b91505092915050565b6000806040838503121561187057600080fd5b600061187e85828601611777565b925050602061188f85828601611777565b9150509250929050565b6000806000606084860312156118ae57600080fd5b60006118bc86828701611777565b93505060206118cd86828701611777565b92505060406118de8682870161181f565b9150509250925092565b600080600080608085870312156118fe57600080fd5b600061190c87828801611777565b945050602061191d87828801611777565b935050604061192e8782880161181f565b925050606085013567ffffffffffffffff81111561194b57600080fd5b611957878288016117cb565b91505092959194509250565b6000806040838503121561197657600080fd5b600061198485828601611777565b92505060206119958582860161178c565b9150509250929050565b600080604083850312156119b257600080fd5b60006119c085828601611777565b92505060206119d18582860161181f565b9150509250929050565b6000602082840312156119ed57600080fd5b60006119fb848285016117a1565b91505092915050565b600060208284031215611a1657600080fd5b6000611a24848285016117b6565b91505092915050565b600060208284031215611a3f57600080fd5b600082013567ffffffffffffffff811115611a5957600080fd5b611a65848285016117f5565b91505092915050565b600060208284031215611a8057600080fd5b6000611a8e8482850161181f565b91505092915050565b611aa0816124bb565b82525050565b611aaf816124cd565b82525050565b6000611ac0826123bd565b611aca81856123d3565b9350611ada81856020860161253e565b611ae3816126d9565b840191505092915050565b6000611af9826123c8565b611b0381856123e4565b9350611b1381856020860161253e565b611b1c816126d9565b840191505092915050565b6000611b32826123c8565b611b3c81856123f5565b9350611b4c81856020860161253e565b80840191505092915050565b6000611b656032836123e4565b91507f4552433732313a207472616e7366657220746f206e6f6e20455243373231526560008301527f63656976657220696d706c656d656e74657200000000000000000000000000006020830152604082019050919050565b6000611bcb601c836123e4565b91507f4552433732313a20746f6b656e20616c7265616479206d696e746564000000006000830152602082019050919050565b6000611c0b6024836123e4565b91507f4552433732313a207472616e7366657220746f20746865207a65726f2061646460008301527f72657373000000000000000000000000000000000000000000000000000000006020830152604082019050919050565b6000611c716019836123e4565b91507f4552433732313a20617070726f766520746f2063616c6c6572000000000000006000830152602082019050919050565b6000611cb1602c836123e4565b91507f4552433732313a206f70657261746f7220717565727920666f72206e6f6e657860008301527f697374656e7420746f6b656e00000000000000000000000000000000000000006020830152604082019050919050565b6000611d176038836123e4565b91507f4552433732313a20617070726f76652063616c6c6572206973206e6f74206f7760008301527f6e6572206e6f7220617070726f76656420666f7220616c6c00000000000000006020830152604082019050919050565b6000611d7d602a836123e4565b91507f4552433732313a2062616c616e636520717565727920666f7220746865207a6560008301527f726f2061646472657373000000000000000000000000000000000000000000006020830152604082019050919050565b6000611de36029836123e4565b91507f4552433732313a206f776e657220717565727920666f72206e6f6e657869737460008301527f656e7420746f6b656e00000000000000000000000000000000000000000000006020830152604082019050919050565b6000611e496020836123e4565b91507f4552433732313a206d696e7420746f20746865207a65726f20616464726573736000830152602082019050919050565b6000611e89602c836123e4565b91507f4552433732313a20617070726f76656420717565727920666f72206e6f6e657860008301527f697374656e7420746f6b656e00000000000000000000000000000000000000006020830152604082019050919050565b6000611eef6029836123e4565b91507f4552433732313a207472616e73666572206f6620746f6b656e2074686174206960008301527f73206e6f74206f776e00000000000000000000000000000000000000000000006020830152604082019050919050565b6000611f55602f836123e4565b91507f4552433732314d657461646174613a2055524920717565727920666f72206e6f60008301527f6e6578697374656e7420746f6b656e00000000000000000000000000000000006020830152604082019050919050565b6000611fbb6021836123e4565b91507f4552433732313a20617070726f76616c20746f2063757272656e74206f776e6560008301527f72000000000000000000000000000000000000000000000000000000000000006020830152604082019050919050565b60006120216031836123e4565b91507f4552433732313a207472616e736665722063616c6c6572206973206e6f74206f60008301527f776e6572206e6f7220617070726f7665640000000000000000000000000000006020830152604082019050919050565b61208381612525565b82525050565b60006120958285611b27565b91506120a18284611b27565b91508190509392505050565b60006020820190506120c26000830184611a97565b92915050565b60006080820190506120dd6000830187611a97565b6120ea6020830186611a97565b6120f7604083018561207a565b81810360608301526121098184611ab5565b905095945050505050565b60006020820190506121296000830184611aa6565b92915050565b600060208201905081810360008301526121498184611aee565b905092915050565b6000602082019050818103600083015261216a81611b58565b9050919050565b6000602082019050818103600083015261218a81611bbe565b9050919050565b600060208201905081810360008301526121aa81611bfe565b9050919050565b600060208201905081810360008301526121ca81611c64565b9050919050565b600060208201905081810360008301526121ea81611ca4565b9050919050565b6000602082019050818103600083015261220a81611d0a565b9050919050565b6000602082019050818103600083015261222a81611d70565b9050919050565b6000602082019050818103600083015261224a81611dd6565b9050919050565b6000602082019050818103600083015261226a81611e3c565b9050919050565b6000602082019050818103600083015261228a81611e7c565b9050919050565b600060208201905081810360008301526122aa81611ee2565b9050919050565b600060208201905081810360008301526122ca81611f48565b9050919050565b600060208201905081810360008301526122ea81611fae565b9050919050565b6000602082019050818103600083015261230a81612014565b9050919050565b6000602082019050612326600083018461207a565b92915050565b6000604051905081810181811067ffffffffffffffff82111715612353576123526126aa565b5b8060405250919050565b600067ffffffffffffffff821115612378576123776126aa565b5b601f19601f8301169050602081019050919050565b600067ffffffffffffffff8211156123a8576123a76126aa565b5b601f19601f8301169050602081019050919050565b600081519050919050565b600081519050919050565b600082825260208201905092915050565b600082825260208201905092915050565b600081905092915050565b600061240b82612525565b915061241683612525565b9250827fffffffffffffffffffffffffffffffffffffffffffffffffffffffffffffffff0382111561244b5761244a61261d565b5b828201905092915050565b600061246182612525565b915061246c83612525565b92508261247c5761247b61264c565b5b828204905092915050565b600061249282612525565b915061249d83612525565b9250828210156124b0576124af61261d565b5b828203905092915050565b60006124c682612505565b9050919050565b60008115159050919050565b60007fffffffff0000000000000000000000000000000000000000000000000000000082169050919050565b600073ffffffffffffffffffffffffffffffffffffffff82169050919050565b6000819050919050565b82818337600083830152505050565b60005b8381101561255c578082015181840152602081019050612541565b8381111561256b576000848401525b50505050565b6000600282049050600182168061258957607f821691505b6020821081141561259d5761259c61267b565b5b50919050565b60006125ae82612525565b91507fffffffffffffffffffffffffffffffffffffffffffffffffffffffffffffffff8214156125e1576125e061261d565b5b600182019050919050565b60006125f782612525565b915061260283612525565b9250826126125761261161264c565b5b828206905092915050565b7f4e487b7100000000000000000000000000000000000000000000000000000000600052601160045260246000fd5b7f4e487b7100000000000000000000000000000000000000000000000000000000600052601260045260246000fd5b7f4e487b7100000000000000000000000000000000000000000000000000000000600052602260045260246000fd5b7f4e487b7100000000000000000000000000000000000000000000000000000000600052604160045260246000fd5b6000601f19601f8301169050919050565b6126f3816124bb565b81146126fe57600080fd5b50565b61270a816124cd565b811461271557600080fd5b50565b612721816124d9565b811461272c57600080fd5b50565b61273881612525565b811461274357600080fd5b5056fea26469706673582212208b1c9106fe721f724bfb0151048748893f4a42d76dca2e71f250c71865bd35e664736f6c63430008000033",
  "immutableReferences": {},
  "source": "pragma solidity 0.8.0;\n\nimport \"@openzeppelin/contracts/token/ERC721/ERC721.sol\";\n\ncontract Pokemon is ERC721 {\n    uint256 public tokenCounter;\n\n    constructor () public ERC721 (\"Charizard\",\"CHZ\") {\n        tokenCounter = 0;\n    }\n    \n    function mint(string memory tokenURI) public returns (uint256) {\n        uint256 newItemId = tokenCounter;\n        _safeMint(msg.sender, newItemId);\n        tokenCounter++;\n        return newItemId;\n    }\n}\n\n\n",
  "sourcePath": "/Users/kang/Work/github/nft/src/contracts/Pokemon.sol",
  "compiler": {
    "name": "solc",
    "version": "0.8.0+commit.c7dfd78e.Emscripten.clang"
  },
  "schemaVersion": "3.4.0",
  "updatedAt": "2021-05-02T07:30:21.743Z",
  "networkType": "ethereum",
  "devdoc": {
    "kind": "dev",
    "methods": {
      "approve(address,uint256)": {
        "details": "See {IERC721-approve}."
      },
      "balanceOf(address)": {
        "details": "See {IERC721-balanceOf}."
      },
      "getApproved(uint256)": {
        "details": "See {IERC721-getApproved}."
      },
      "isApprovedForAll(address,address)": {
        "details": "See {IERC721-isApprovedForAll}."
      },
      "name()": {
        "details": "See {IERC721Metadata-name}."
      },
      "ownerOf(uint256)": {
        "details": "See {IERC721-ownerOf}."
      },
      "safeTransferFrom(address,address,uint256)": {
        "details": "See {IERC721-safeTransferFrom}."
      },
      "safeTransferFrom(address,address,uint256,bytes)": {
        "details": "See {IERC721-safeTransferFrom}."
      },
      "setApprovalForAll(address,bool)": {
        "details": "See {IERC721-setApprovalForAll}."
      },
      "supportsInterface(bytes4)": {
        "details": "See {IERC165-supportsInterface}."
      },
      "symbol()": {
        "details": "See {IERC721Metadata-symbol}."
      },
      "tokenURI(uint256)": {
        "details": "See {IERC721Metadata-tokenURI}."
      },
      "transferFrom(address,address,uint256)": {
        "details": "See {IERC721-transferFrom}."
      }
    },
    "version": 1
  },
  "userdoc": {
    "kind": "user",
    "methods": {},
    "version": 1
  }
}