{
  "contractName": "Pokemon",
  "abi": [
    {
      "inputs": [],
      "stateMutability": "nonpayable",
      "type": "constructor"
    },
    {
      "anonymous": false,
      "inputs": [
        {
          "indexed": true,
          "internalType": "address",
          "name": "owner",
          "type": "address"
        },
        {
          "indexed": true,
          "internalType": "address",
          "name": "approved",
          "type": "address"
        },
        {
          "indexed": true,
          "internalType": "uint256",
          "name": "tokenId",
          "type": "uint256"
        }
      ],
      "name": "Approval",
      "type": "event"
    },
    {
      "anonymous": false,
      "inputs": [
        {
          "indexed": true,
          "internalType": "address",
          "name": "owner",
          "type": "address"
        },
        {
          "indexed": true,
          "internalType": "address",
          "name": "operator",
          "type": "address"
        },
        {
          "indexed": false,
          "internalType": "bool",
          "name": "approved",
          "type": "bool"
        }
      ],
      "name": "ApprovalForAll",
      "type": "event"
    },
    {
      "anonymous": false,
      "inputs": [
        {
          "indexed": true,
          "internalType": "address",
          "name": "from",
          "type": "address"
        },
        {
          "indexed": true,
          "internalType": "address",
          "name": "to",
          "type": "address"
        },
        {
          "indexed": true,
          "internalType": "uint256",
          "name": "tokenId",
          "type": "uint256"
        }
      ],
      "name": "Transfer",
      "type": "event"
    },
    {
      "inputs": [
        {
          "internalType": "address",
          "name": "to",
          "type": "address"
        },
        {
          "internalType": "uint256",
          "name": "tokenId",
          "type": "uint256"
        }
      ],
      "name": "approve",
      "outputs": [],
      "stateMutability": "nonpayable",
      "type": "function"
    },
    {
      "inputs": [
        {
          "internalType": "uint256",
          "name": "",
          "type": "uint256"
        }
      ],
      "name": "attributes",
      "outputs": [
        {
          "internalType": "string",
          "name": "tokenURI",
          "type": "string"
        },
        {
          "internalType": "string",
          "name": "name",
          "type": "string"
        },
        {
          "internalType": "uint256",
          "name": "health",
          "type": "uint256"
        },
        {
          "internalType": "uint256",
          "name": "retreat",
          "type": "uint256"
        }
      ],
      "stateMutability": "view",
      "type": "function",
      "constant": true
    },
    {
      "inputs": [
        {
          "internalType": "address",
          "name": "owner",
          "type": "address"
        }
      ],
      "name": "balanceOf",
      "outputs": [
        {
          "internalType": "uint256",
          "name": "",
          "type": "uint256"
        }
      ],
      "stateMutability": "view",
      "type": "function",
      "constant": true
    },
    {
      "inputs": [
        {
          "internalType": "uint256",
          "name": "tokenId",
          "type": "uint256"
        }
      ],
      "name": "getApproved",
      "outputs": [
        {
          "internalType": "address",
          "name": "",
          "type": "address"
        }
      ],
      "stateMutability": "view",
      "type": "function",
      "constant": true
    },
    {
      "inputs": [
        {
          "internalType": "address",
          "name": "owner",
          "type": "address"
        },
        {
          "internalType": "address",
          "name": "operator",
          "type": "address"
        }
      ],
      "name": "isApprovedForAll",
      "outputs": [
        {
          "internalType": "bool",
          "name": "",
          "type": "bool"
        }
      ],
      "stateMutability": "view",
      "type": "function",
      "constant": true
    },
    {
      "inputs": [],
      "name": "name",
      "outputs": [
        {
          "internalType": "string",
          "name": "",
          "type": "string"
        }
      ],
      "stateMutability": "view",
      "type": "function",
      "constant": true
    },
    {
      "inputs": [
        {
          "internalType": "uint256",
          "name": "tokenId",
          "type": "uint256"
        }
      ],
      "name": "ownerOf",
      "outputs": [
        {
          "internalType": "address",
          "name": "",
          "type": "address"
        }
      ],
      "stateMutability": "view",
      "type": "function",
      "constant": true
    },
    {
      "inputs": [
        {
          "internalType": "address",
          "name": "from",
          "type": "address"
        },
        {
          "internalType": "address",
          "name": "to",
          "type": "address"
        },
        {
          "internalType": "uint256",
          "name": "tokenId",
          "type": "uint256"
        }
      ],
      "name": "safeTransferFrom",
      "outputs": [],
      "stateMutability": "nonpayable",
      "type": "function"
    },
    {
      "inputs": [
        {
          "internalType": "address",
          "name": "from",
          "type": "address"
        },
        {
          "internalType": "address",
          "name": "to",
          "type": "address"
        },
        {
          "internalType": "uint256",
          "name": "tokenId",
          "type": "uint256"
        },
        {
          "internalType": "bytes",
          "name": "_data",
          "type": "bytes"
        }
      ],
      "name": "safeTransferFrom",
      "outputs": [],
      "stateMutability": "nonpayable",
      "type": "function"
    },
    {
      "inputs": [
        {
          "internalType": "address",
          "name": "operator",
          "type": "address"
        },
        {
          "internalType": "bool",
          "name": "approved",
          "type": "bool"
        }
      ],
      "name": "setApprovalForAll",
      "outputs": [],
      "stateMutability": "nonpayable",
      "type": "function"
    },
    {
      "inputs": [
        {
          "internalType": "bytes4",
          "name": "interfaceId",
          "type": "bytes4"
        }
      ],
      "name": "supportsInterface",
      "outputs": [
        {
          "internalType": "bool",
          "name": "",
          "type": "bool"
        }
      ],
      "stateMutability": "view",
      "type": "function",
      "constant": true
    },
    {
      "inputs": [],
      "name": "symbol",
      "outputs": [
        {
          "internalType": "string",
          "name": "",
          "type": "string"
        }
      ],
      "stateMutability": "view",
      "type": "function",
      "constant": true
    },
    {
      "inputs": [],
      "name": "tokenCounter",
      "outputs": [
        {
          "internalType": "uint256",
          "name": "",
          "type": "uint256"
        }
      ],
      "stateMutability": "view",
      "type": "function",
      "constant": true
    },
    {
      "inputs": [
        {
          "internalType": "uint256",
          "name": "tokenId",
          "type": "uint256"
        }
      ],
      "name": "tokenURI",
      "outputs": [
        {
          "internalType": "string",
          "name": "",
          "type": "string"
        }
      ],
      "stateMutability": "view",
      "type": "function",
      "constant": true
    },
    {
      "inputs": [
        {
          "internalType": "address",
          "name": "from",
          "type": "address"
        },
        {
          "internalType": "address",
          "name": "to",
          "type": "address"
        },
        {
          "internalType": "uint256",
          "name": "tokenId",
          "type": "uint256"
        }
      ],
      "name": "transferFrom",
      "outputs": [],
      "stateMutability": "nonpayable",
      "type": "function"
    },
    {
      "inputs": [
        {
          "internalType": "string",
          "name": "_tokenURI",
          "type": "string"
        },
        {
          "internalType": "string",
          "name": "_name",
          "type": "string"
        },
        {
          "internalType": "uint256",
          "name": "_health",
          "type": "uint256"
        },
        {
          "internalType": "uint256",
          "name": "_retreat",
          "type": "uint256"
        }
      ],
      "name": "mint",
      "outputs": [
        {
          "internalType": "uint256",
          "name": "",
          "type": "uint256"
        }
      ],
      "stateMutability": "nonpayable",
      "type": "function"
    }
  ],
  "bytecode": "0x60806040523480156200001157600080fd5b506040518060400160405280600781526020017f506f6b656d6f6e000000000000000000000000000000000000000000000000008152506040518060400160405280600381526020017f504f4b0000000000000000000000000000000000000000000000000000000000815250816000908051906020019062000096929190620000c0565b508060019080519060200190620000af929190620000c0565b5050506000600681905550620001d5565b828054620000ce9062000170565b90600052602060002090601f016020900481019282620000f257600085556200013e565b82601f106200010d57805160ff19168380011785556200013e565b828001600101855582156200013e579182015b828111156200013d57825182559160200191906001019062000120565b5b5090506200014d919062000151565b5090565b5b808211156200016c57600081600090555060010162000152565b5090565b600060028204905060018216806200018957607f821691505b60208210811415620001a0576200019f620001a6565b5b50919050565b7f4e487b7100000000000000000000000000000000000000000000000000000000600052602260045260246000fd5b612af780620001e56000396000f3fe608060405234801561001057600080fd5b50600436106101005760003560e01c806395d89b4111610097578063c87b56dd11610066578063c87b56dd146102bd578063d05dcc6a146102ed578063d082e38114610320578063e985e9c51461033e57610100565b806395d89b4114610237578063a22cb46514610255578063b88d4fde14610271578063b9a918ce1461028d57610100565b806323b872dd116100d357806323b872dd1461019f57806342842e0e146101bb5780636352211e146101d757806370a082311461020757610100565b806301ffc9a71461010557806306fdde0314610135578063081812fc14610153578063095ea7b314610183575b600080fd5b61011f600480360381019061011a9190611cb1565b61036e565b60405161012c919061243c565b60405180910390f35b61013d610450565b60405161014a9190612457565b60405180910390f35b61016d60048036038101906101689190611d96565b6104e2565b60405161017a91906123d5565b60405180910390f35b61019d60048036038101906101989190611c75565b610567565b005b6101b960048036038101906101b49190611b6f565b61067f565b005b6101d560048036038101906101d09190611b6f565b6106df565b005b6101f160048036038101906101ec9190611d96565b6106ff565b6040516101fe91906123d5565b60405180910390f35b610221600480360381019061021c9190611b0a565b6107b1565b60405161022e919061268c565b60405180910390f35b61023f610869565b60405161024c9190612457565b60405180910390f35b61026f600480360381019061026a9190611c39565b6108fb565b005b61028b60048036038101906102869190611bbe565b610a7c565b005b6102a760048036038101906102a29190611d03565b610ade565b6040516102b4919061268c565b60405180910390f35b6102d760048036038101906102d29190611d96565b610bb6565b6040516102e49190612457565b60405180910390f35b61030760048036038101906103029190611d96565b610c5d565b6040516103179493929190612479565b60405180910390f35b610328610dad565b604051610335919061268c565b60405180910390f35b61035860048036038101906103539190611b33565b610db3565b604051610365919061243c565b60405180910390f35b60007f80ac58cd000000000000000000000000000000000000000000000000000000007bffffffffffffffffffffffffffffffffffffffffffffffffffffffff1916827bffffffffffffffffffffffffffffffffffffffffffffffffffffffff1916148061043957507f5b5e139f000000000000000000000000000000000000000000000000000000007bffffffffffffffffffffffffffffffffffffffffffffffffffffffff1916827bffffffffffffffffffffffffffffffffffffffffffffffffffffffff1916145b80610449575061044882610e47565b5b9050919050565b60606000805461045f906128ec565b80601f016020809104026020016040519081016040528092919081815260200182805461048b906128ec565b80156104d85780601f106104ad576101008083540402835291602001916104d8565b820191906000526020600020905b8154815290600101906020018083116104bb57829003601f168201915b5050505050905090565b60006104ed82610eb1565b61052c576040517f08c379a0000000000000000000000000000000000000000000000000000000008152600401610523906125ec565b60405180910390fd5b6004600083815260200190815260200160002060009054906101000a900473ffffffffffffffffffffffffffffffffffffffff169050919050565b6000610572826106ff565b90508073ffffffffffffffffffffffffffffffffffffffff168373ffffffffffffffffffffffffffffffffffffffff1614156105e3576040517f08c379a00000000000000000000000000000000000000000000000000000000081526004016105da9061264c565b60405180910390fd5b8073ffffffffffffffffffffffffffffffffffffffff16610602610f1d565b73ffffffffffffffffffffffffffffffffffffffff16148061063157506106308161062b610f1d565b610db3565b5b610670576040517f08c379a00000000000000000000000000000000000000000000000000000000081526004016106679061256c565b60405180910390fd5b61067a8383610f25565b505050565b61069061068a610f1d565b82610fde565b6106cf576040517f08c379a00000000000000000000000000000000000000000000000000000000081526004016106c69061266c565b60405180910390fd5b6106da8383836110bc565b505050565b6106fa83838360405180602001604052806000815250610a7c565b505050565b6000806002600084815260200190815260200160002060009054906101000a900473ffffffffffffffffffffffffffffffffffffffff169050600073ffffffffffffffffffffffffffffffffffffffff168173ffffffffffffffffffffffffffffffffffffffff1614156107a8576040517f08c379a000000000000000000000000000000000000000000000000000000000815260040161079f906125ac565b60405180910390fd5b80915050919050565b60008073ffffffffffffffffffffffffffffffffffffffff168273ffffffffffffffffffffffffffffffffffffffff161415610822576040517f08c379a00000000000000000000000000000000000000000000000000000000081526004016108199061258c565b60405180910390fd5b600360008373ffffffffffffffffffffffffffffffffffffffff1673ffffffffffffffffffffffffffffffffffffffff168152602001908152602001600020549050919050565b606060018054610878906128ec565b80601f01602080910402602001604051908101604052809291908181526020018280546108a4906128ec565b80156108f15780601f106108c6576101008083540402835291602001916108f1565b820191906000526020600020905b8154815290600101906020018083116108d457829003601f168201915b5050505050905090565b610903610f1d565b73ffffffffffffffffffffffffffffffffffffffff168273ffffffffffffffffffffffffffffffffffffffff161415610971576040517f08c379a00000000000000000000000000000000000000000000000000000000081526004016109689061252c565b60405180910390fd5b806005600061097e610f1d565b73ffffffffffffffffffffffffffffffffffffffff1673ffffffffffffffffffffffffffffffffffffffff16815260200190815260200160002060008473ffffffffffffffffffffffffffffffffffffffff1673ffffffffffffffffffffffffffffffffffffffff16815260200190815260200160002060006101000a81548160ff0219169083151502179055508173ffffffffffffffffffffffffffffffffffffffff16610a2b610f1d565b73ffffffffffffffffffffffffffffffffffffffff167f17307eab39ab6107e8899845ad3d59bd9653f200f220920489ca2b5937696c3183604051610a70919061243c565b60405180910390a35050565b610a8d610a87610f1d565b83610fde565b610acc576040517f08c379a0000000000000000000000000000000000000000000000000000000008152600401610ac39061266c565b60405180910390fd5b610ad884848484611318565b50505050565b6000806006549050610af03382611374565b6000604051806080016040528088815260200187815260200186815260200185815250905060078190806001815401808255809150506001900390600052602060002090600402016000909190919091506000820151816000019080519060200190610b5d92919061192e565b506020820151816001019080519060200190610b7a92919061192e565b506040820151816002015560608201518160030155505060066000815480929190610ba49061291e565b91905055508192505050949350505050565b6060610bc182610eb1565b610c00576040517f08c379a0000000000000000000000000000000000000000000000000000000008152600401610bf79061262c565b60405180910390fd5b6000610c0a611392565b90506000815111610c2a5760405180602001604052806000815250610c55565b80610c34846113a9565b604051602001610c459291906123b1565b6040516020818303038152906040525b915050919050565b60078181548110610c6d57600080fd5b9060005260206000209060040201600091509050806000018054610c90906128ec565b80601f0160208091040260200160405190810160405280929190818152602001828054610cbc906128ec565b8015610d095780601f10610cde57610100808354040283529160200191610d09565b820191906000526020600020905b815481529060010190602001808311610cec57829003601f168201915b505050505090806001018054610d1e906128ec565b80601f0160208091040260200160405190810160405280929190818152602001828054610d4a906128ec565b8015610d975780601f10610d6c57610100808354040283529160200191610d97565b820191906000526020600020905b815481529060010190602001808311610d7a57829003601f168201915b5050505050908060020154908060030154905084565b60065481565b6000600560008473ffffffffffffffffffffffffffffffffffffffff1673ffffffffffffffffffffffffffffffffffffffff16815260200190815260200160002060008373ffffffffffffffffffffffffffffffffffffffff1673ffffffffffffffffffffffffffffffffffffffff16815260200190815260200160002060009054906101000a900460ff16905092915050565b60007f01ffc9a7000000000000000000000000000000000000000000000000000000007bffffffffffffffffffffffffffffffffffffffffffffffffffffffff1916827bffffffffffffffffffffffffffffffffffffffffffffffffffffffff1916149050919050565b60008073ffffffffffffffffffffffffffffffffffffffff166002600084815260200190815260200160002060009054906101000a900473ffffffffffffffffffffffffffffffffffffffff1673ffffffffffffffffffffffffffffffffffffffff1614159050919050565b600033905090565b816004600083815260200190815260200160002060006101000a81548173ffffffffffffffffffffffffffffffffffffffff021916908373ffffffffffffffffffffffffffffffffffffffff160217905550808273ffffffffffffffffffffffffffffffffffffffff16610f98836106ff565b73ffffffffffffffffffffffffffffffffffffffff167f8c5be1e5ebec7d5bd14f71427d1e84f3dd0314c0f7b2291e5b200ac8c7c3b92560405160405180910390a45050565b6000610fe982610eb1565b611028576040517f08c379a000000000000000000000000000000000000000000000000000000000815260040161101f9061254c565b60405180910390fd5b6000611033836106ff565b90508073ffffffffffffffffffffffffffffffffffffffff168473ffffffffffffffffffffffffffffffffffffffff1614806110a257508373ffffffffffffffffffffffffffffffffffffffff1661108a846104e2565b73ffffffffffffffffffffffffffffffffffffffff16145b806110b357506110b28185610db3565b5b91505092915050565b8273ffffffffffffffffffffffffffffffffffffffff166110dc826106ff565b73ffffffffffffffffffffffffffffffffffffffff1614611132576040517f08c379a00000000000000000000000000000000000000000000000000000000081526004016111299061260c565b60405180910390fd5b600073ffffffffffffffffffffffffffffffffffffffff168273ffffffffffffffffffffffffffffffffffffffff1614156111a2576040517f08c379a00000000000000000000000000000000000000000000000000000000081526004016111999061250c565b60405180910390fd5b6111ad838383611556565b6111b8600082610f25565b6001600360008573ffffffffffffffffffffffffffffffffffffffff1673ffffffffffffffffffffffffffffffffffffffff16815260200190815260200160002060008282546112089190612802565b925050819055506001600360008473ffffffffffffffffffffffffffffffffffffffff1673ffffffffffffffffffffffffffffffffffffffff168152602001908152602001600020600082825461125f919061277b565b92505081905550816002600083815260200190815260200160002060006101000a81548173ffffffffffffffffffffffffffffffffffffffff021916908373ffffffffffffffffffffffffffffffffffffffff160217905550808273ffffffffffffffffffffffffffffffffffffffff168473ffffffffffffffffffffffffffffffffffffffff167fddf252ad1be2c89b69c2b068fc378daa952ba7f163c4a11628f55a4df523b3ef60405160405180910390a4505050565b6113238484846110bc565b61132f8484848461155b565b61136e576040517f08c379a0000000000000000000000000000000000000000000000000000000008152600401611365906124cc565b60405180910390fd5b50505050565b61138e8282604051806020016040528060008152506116f2565b5050565b606060405180602001604052806000815250905090565b606060008214156113f1576040518060400160405280600181526020017f30000000000000000000000000000000000000000000000000000000000000008152509050611551565b600082905060005b6000821461142357808061140c9061291e565b915050600a8261141c91906127d1565b91506113f9565b60008167ffffffffffffffff811115611465577f4e487b7100000000000000000000000000000000000000000000000000000000600052604160045260246000fd5b6040519080825280601f01601f1916602001820160405280156114975781602001600182028036833780820191505090505b5090505b6000851461154a576001826114b09190612802565b9150600a856114bf9190612967565b60306114cb919061277b565b60f81b818381518110611507577f4e487b7100000000000000000000000000000000000000000000000000000000600052603260045260246000fd5b60200101907effffffffffffffffffffffffffffffffffffffffffffffffffffffffffffff1916908160001a905350600a8561154391906127d1565b945061149b565b8093505050505b919050565b505050565b600061157c8473ffffffffffffffffffffffffffffffffffffffff1661174d565b156116e5578373ffffffffffffffffffffffffffffffffffffffff1663150b7a026115a5610f1d565b8786866040518563ffffffff1660e01b81526004016115c794939291906123f0565b602060405180830381600087803b1580156115e157600080fd5b505af192505050801561161257506040513d601f19601f8201168201806040525081019061160f9190611cda565b60015b611695573d8060008114611642576040519150601f19603f3d011682016040523d82523d6000602084013e611647565b606091505b5060008151141561168d576040517f08c379a0000000000000000000000000000000000000000000000000000000008152600401611684906124cc565b60405180910390fd5b805181602001fd5b63150b7a0260e01b7bffffffffffffffffffffffffffffffffffffffffffffffffffffffff1916817bffffffffffffffffffffffffffffffffffffffffffffffffffffffff1916149150506116ea565b600190505b949350505050565b6116fc8383611760565b611709600084848461155b565b611748576040517f08c379a000000000000000000000000000000000000000000000000000000000815260040161173f906124cc565b60405180910390fd5b505050565b600080823b905060008111915050919050565b600073ffffffffffffffffffffffffffffffffffffffff168273ffffffffffffffffffffffffffffffffffffffff1614156117d0576040517f08c379a00000000000000000000000000000000000000000000000000000000081526004016117c7906125cc565b60405180910390fd5b6117d981610eb1565b15611819576040517f08c379a0000000000000000000000000000000000000000000000000000000008152600401611810906124ec565b60405180910390fd5b61182560008383611556565b6001600360008473ffffffffffffffffffffffffffffffffffffffff1673ffffffffffffffffffffffffffffffffffffffff1681526020019081526020016000206000828254611875919061277b565b92505081905550816002600083815260200190815260200160002060006101000a81548173ffffffffffffffffffffffffffffffffffffffff021916908373ffffffffffffffffffffffffffffffffffffffff160217905550808273ffffffffffffffffffffffffffffffffffffffff16600073ffffffffffffffffffffffffffffffffffffffff167fddf252ad1be2c89b69c2b068fc378daa952ba7f163c4a11628f55a4df523b3ef60405160405180910390a45050565b82805461193a906128ec565b90600052602060002090601f01602090048101928261195c57600085556119a3565b82601f1061197557805160ff19168380011785556119a3565b828001600101855582156119a3579182015b828111156119a2578251825591602001919060010190611987565b5b5090506119b091906119b4565b5090565b5b808211156119cd5760008160009055506001016119b5565b5090565b60006119e46119df846126d8565b6126a7565b9050828152602081018484840111156119fc57600080fd5b611a078482856128aa565b509392505050565b6000611a22611a1d84612708565b6126a7565b905082815260208101848484011115611a3a57600080fd5b611a458482856128aa565b509392505050565b600081359050611a5c81612a65565b92915050565b600081359050611a7181612a7c565b92915050565b600081359050611a8681612a93565b92915050565b600081519050611a9b81612a93565b92915050565b600082601f830112611ab257600080fd5b8135611ac28482602086016119d1565b91505092915050565b600082601f830112611adc57600080fd5b8135611aec848260208601611a0f565b91505092915050565b600081359050611b0481612aaa565b92915050565b600060208284031215611b1c57600080fd5b6000611b2a84828501611a4d565b91505092915050565b60008060408385031215611b4657600080fd5b6000611b5485828601611a4d565b9250506020611b6585828601611a4d565b9150509250929050565b600080600060608486031215611b8457600080fd5b6000611b9286828701611a4d565b9350506020611ba386828701611a4d565b9250506040611bb486828701611af5565b9150509250925092565b60008060008060808587031215611bd457600080fd5b6000611be287828801611a4d565b9450506020611bf387828801611a4d565b9350506040611c0487828801611af5565b925050606085013567ffffffffffffffff811115611c2157600080fd5b611c2d87828801611aa1565b91505092959194509250565b60008060408385031215611c4c57600080fd5b6000611c5a85828601611a4d565b9250506020611c6b85828601611a62565b9150509250929050565b60008060408385031215611c8857600080fd5b6000611c9685828601611a4d565b9250506020611ca785828601611af5565b9150509250929050565b600060208284031215611cc357600080fd5b6000611cd184828501611a77565b91505092915050565b600060208284031215611cec57600080fd5b6000611cfa84828501611a8c565b91505092915050565b60008060008060808587031215611d1957600080fd5b600085013567ffffffffffffffff811115611d3357600080fd5b611d3f87828801611acb565b945050602085013567ffffffffffffffff811115611d5c57600080fd5b611d6887828801611acb565b9350506040611d7987828801611af5565b9250506060611d8a87828801611af5565b91505092959194509250565b600060208284031215611da857600080fd5b6000611db684828501611af5565b91505092915050565b611dc881612836565b82525050565b611dd781612848565b82525050565b6000611de882612738565b611df2818561274e565b9350611e028185602086016128b9565b611e0b81612a54565b840191505092915050565b6000611e2182612743565b611e2b818561275f565b9350611e3b8185602086016128b9565b611e4481612a54565b840191505092915050565b6000611e5a82612743565b611e648185612770565b9350611e748185602086016128b9565b80840191505092915050565b6000611e8d60328361275f565b91507f4552433732313a207472616e7366657220746f206e6f6e20455243373231526560008301527f63656976657220696d706c656d656e74657200000000000000000000000000006020830152604082019050919050565b6000611ef3601c8361275f565b91507f4552433732313a20746f6b656e20616c7265616479206d696e746564000000006000830152602082019050919050565b6000611f3360248361275f565b91507f4552433732313a207472616e7366657220746f20746865207a65726f2061646460008301527f72657373000000000000000000000000000000000000000000000000000000006020830152604082019050919050565b6000611f9960198361275f565b91507f4552433732313a20617070726f766520746f2063616c6c6572000000000000006000830152602082019050919050565b6000611fd9602c8361275f565b91507f4552433732313a206f70657261746f7220717565727920666f72206e6f6e657860008301527f697374656e7420746f6b656e00000000000000000000000000000000000000006020830152604082019050919050565b600061203f60388361275f565b91507f4552433732313a20617070726f76652063616c6c6572206973206e6f74206f7760008301527f6e6572206e6f7220617070726f76656420666f7220616c6c00000000000000006020830152604082019050919050565b60006120a5602a8361275f565b91507f4552433732313a2062616c616e636520717565727920666f7220746865207a6560008301527f726f2061646472657373000000000000000000000000000000000000000000006020830152604082019050919050565b600061210b60298361275f565b91507f4552433732313a206f776e657220717565727920666f72206e6f6e657869737460008301527f656e7420746f6b656e00000000000000000000000000000000000000000000006020830152604082019050919050565b600061217160208361275f565b91507f4552433732313a206d696e7420746f20746865207a65726f20616464726573736000830152602082019050919050565b60006121b1602c8361275f565b91507f4552433732313a20617070726f76656420717565727920666f72206e6f6e657860008301527f697374656e7420746f6b656e00000000000000000000000000000000000000006020830152604082019050919050565b600061221760298361275f565b91507f4552433732313a207472616e73666572206f6620746f6b656e2074686174206960008301527f73206e6f74206f776e00000000000000000000000000000000000000000000006020830152604082019050919050565b600061227d602f8361275f565b91507f4552433732314d657461646174613a2055524920717565727920666f72206e6f60008301527f6e6578697374656e7420746f6b656e00000000000000000000000000000000006020830152604082019050919050565b60006122e360218361275f565b91507f4552433732313a20617070726f76616c20746f2063757272656e74206f776e6560008301527f72000000000000000000000000000000000000000000000000000000000000006020830152604082019050919050565b600061234960318361275f565b91507f4552433732313a207472616e736665722063616c6c6572206973206e6f74206f60008301527f776e6572206e6f7220617070726f7665640000000000000000000000000000006020830152604082019050919050565b6123ab816128a0565b82525050565b60006123bd8285611e4f565b91506123c98284611e4f565b91508190509392505050565b60006020820190506123ea6000830184611dbf565b92915050565b60006080820190506124056000830187611dbf565b6124126020830186611dbf565b61241f60408301856123a2565b81810360608301526124318184611ddd565b905095945050505050565b60006020820190506124516000830184611dce565b92915050565b600060208201905081810360008301526124718184611e16565b905092915050565b600060808201905081810360008301526124938187611e16565b905081810360208301526124a78186611e16565b90506124b660408301856123a2565b6124c360608301846123a2565b95945050505050565b600060208201905081810360008301526124e581611e80565b9050919050565b6000602082019050818103600083015261250581611ee6565b9050919050565b6000602082019050818103600083015261252581611f26565b9050919050565b6000602082019050818103600083015261254581611f8c565b9050919050565b6000602082019050818103600083015261256581611fcc565b9050919050565b6000602082019050818103600083015261258581612032565b9050919050565b600060208201905081810360008301526125a581612098565b9050919050565b600060208201905081810360008301526125c5816120fe565b9050919050565b600060208201905081810360008301526125e581612164565b9050919050565b60006020820190508181036000830152612605816121a4565b9050919050565b600060208201905081810360008301526126258161220a565b9050919050565b6000602082019050818103600083015261264581612270565b9050919050565b60006020820190508181036000830152612665816122d6565b9050919050565b600060208201905081810360008301526126858161233c565b9050919050565b60006020820190506126a160008301846123a2565b92915050565b6000604051905081810181811067ffffffffffffffff821117156126ce576126cd612a25565b5b8060405250919050565b600067ffffffffffffffff8211156126f3576126f2612a25565b5b601f19601f8301169050602081019050919050565b600067ffffffffffffffff82111561272357612722612a25565b5b601f19601f8301169050602081019050919050565b600081519050919050565b600081519050919050565b600082825260208201905092915050565b600082825260208201905092915050565b600081905092915050565b6000612786826128a0565b9150612791836128a0565b9250827fffffffffffffffffffffffffffffffffffffffffffffffffffffffffffffffff038211156127c6576127c5612998565b5b828201905092915050565b60006127dc826128a0565b91506127e7836128a0565b9250826127f7576127f66129c7565b5b828204905092915050565b600061280d826128a0565b9150612818836128a0565b92508282101561282b5761282a612998565b5b828203905092915050565b600061284182612880565b9050919050565b60008115159050919050565b60007fffffffff0000000000000000000000000000000000000000000000000000000082169050919050565b600073ffffffffffffffffffffffffffffffffffffffff82169050919050565b6000819050919050565b82818337600083830152505050565b60005b838110156128d75780820151818401526020810190506128bc565b838111156128e6576000848401525b50505050565b6000600282049050600182168061290457607f821691505b60208210811415612918576129176129f6565b5b50919050565b6000612929826128a0565b91507fffffffffffffffffffffffffffffffffffffffffffffffffffffffffffffffff82141561295c5761295b612998565b5b600182019050919050565b6000612972826128a0565b915061297d836128a0565b92508261298d5761298c6129c7565b5b828206905092915050565b7f4e487b7100000000000000000000000000000000000000000000000000000000600052601160045260246000fd5b7f4e487b7100000000000000000000000000000000000000000000000000000000600052601260045260246000fd5b7f4e487b7100000000000000000000000000000000000000000000000000000000600052602260045260246000fd5b7f4e487b7100000000000000000000000000000000000000000000000000000000600052604160045260246000fd5b6000601f19601f8301169050919050565b612a6e81612836565b8114612a7957600080fd5b50565b612a8581612848565b8114612a9057600080fd5b50565b612a9c81612854565b8114612aa757600080fd5b50565b612ab3816128a0565b8114612abe57600080fd5b5056fea26469706673582212205c736756727d433af6e11d33f8866a9748ba05354c28ff300ca687bcb116fdd564736f6c63430008000033",
  "immutableReferences": {},
  "source": "pragma solidity 0.8.0;\n\nimport \"@openzeppelin/contracts/token/ERC721/ERC721.sol\";\n\ncontract Pokemon is ERC721 {\n    \n    struct Attribute {\n        string tokenURI;\n        string name;\n        uint256 health;\n        uint256 retreat;\n    }\n\n    uint256 public tokenCounter;\n\n    Attribute[] public attributes;  \n    // Ideally store metadata on IPFS\n    \n    constructor() ERC721 (\"Pokemon\",\"POK\") public {\n        tokenCounter = 0;\n    }\n\n    function mint(string memory _tokenURI, string memory _name, uint256 _health, uint256 _retreat) public returns (uint256) {\n        uint256 newItemId = tokenCounter;\n        _safeMint(msg.sender, newItemId);\n        Attribute memory attribute = Attribute(_tokenURI, _name, _health, _retreat);\n        attributes.push(attribute);\n        tokenCounter++;\n        return newItemId;\n    }\n}",
  "sourcePath": "/Users/kang.chen/Work/nft-demo/src/contracts/Pokemon.sol",
  "compiler": {
    "name": "solc",
    "version": "0.8.0+commit.c7dfd78e.Emscripten.clang"
  },
  "schemaVersion": "3.4.0",
  "updatedAt": "2021-05-18T11:27:26.309Z",
  "networkType": "ethereum",
  "devdoc": {
    "kind": "dev",
    "methods": {
      "approve(address,uint256)": {
        "details": "See {IERC721-approve}."
      },
      "balanceOf(address)": {
        "details": "See {IERC721-balanceOf}."
      },
      "getApproved(uint256)": {
        "details": "See {IERC721-getApproved}."
      },
      "isApprovedForAll(address,address)": {
        "details": "See {IERC721-isApprovedForAll}."
      },
      "name()": {
        "details": "See {IERC721Metadata-name}."
      },
      "ownerOf(uint256)": {
        "details": "See {IERC721-ownerOf}."
      },
      "safeTransferFrom(address,address,uint256)": {
        "details": "See {IERC721-safeTransferFrom}."
      },
      "safeTransferFrom(address,address,uint256,bytes)": {
        "details": "See {IERC721-safeTransferFrom}."
      },
      "setApprovalForAll(address,bool)": {
        "details": "See {IERC721-setApprovalForAll}."
      },
      "supportsInterface(bytes4)": {
        "details": "See {IERC165-supportsInterface}."
      },
      "symbol()": {
        "details": "See {IERC721Metadata-symbol}."
      },
      "tokenURI(uint256)": {
        "details": "See {IERC721Metadata-tokenURI}."
      },
      "transferFrom(address,address,uint256)": {
        "details": "See {IERC721-transferFrom}."
      }
    },
    "version": 1
  },
  "userdoc": {
    "kind": "user",
    "methods": {},
    "version": 1
  }
}